:020000008D2A47
:08000800FE00030E8312031336
:10001000B9000A08BA008A018C1C1C288C10FA1D31
:1000200015284E30831692008529FA15EA3083167A
:10003000031392008312B301831203130C1D992939
:1000400091018C10FA11013097064E308316920000
:10005000371A2E2883121718322892288312031376
:100060001718922883120313B308031D3F2815089D
:100070008316E000831216088316E1009429831288
:1000800003133308023A031D5A2815088316E400A7
:10009000831216088316E50063086502E300620810
:1000A0006402E200031CE3030314E31F0310E30CE8
:1000B000E20C9429831203133308043A031D7528B4
:1000C00015088316E800831216088316E9006708EE
:1000D0006902E70066086802E600031CE7030314F0
:1000E000E71F0310E70CE60C94298312031333086F
:1000F000063A031D852915088316EC00831216089D
:100100008316ED006B086D02EB006A086C02EA00D2
:10011000031CEB030314EB1F0310EB0CEA0C6A083F
:10012000F500942983120313330BAB2815088316AB
:10013000E200831216088316E30061086302E100FF
:1001400060086202E000031CE1030314E11F0310D6
:10015000E10CE00C9429831203133308033A031DC6
:10016000C62815088316E600831216088316E700D2
:1001700065086702E50064086602E400031CE50305
:100180000314E51F0310E50CE40C942983120313F8
:100190003308053A031D672915088316EA00831200
:1001A00016088316EB0069086B02E90068086A020A
:1001B000E800031CE9030314E91F0310E90CE80C31
:1001C000610B8529630B8529650B8529670B8529BB
:1001D000690B8529B71CF8286408F00077306002A5
:1001E0008312B4007730831662028312B5000529AA
:1001F000831603136008F000773062028312B400A4
:100200007730831664028312B500773083160313A8
:1002100066028312B6008316B71D172903148312D2
:10022000B41F0310B40C0314B51F0310B50C8312D4
:1002300003133608F3000310710DB700B801F11B6A
:10024000B803B80D7108B7070318B80AF11BB80353
:100250003408B7070318B80AB41BB8030230B7074D
:100260000318B80A0314B81F0310B80CB70C031412
:10027000B81F0310B80CB70C3708F1000310720D4B
:10028000B700B801F21BB803B80D7208B70703181E
:10029000B80AF21BB8033508B7070318B80AB51B2C
:1002A000B8030230B7070318B80A0314B81F0310C5
:1002B000B80CB70C0314B81F0310B80CB70C3708F0
:1002C000F20083166808F4007A107A1594298312D4
:1002D00003133308073A031D852983166D0883121B
:1002E00016028316ED006C08831215028316EC00CB
:1002F000031CED030314ED1F0310ED0CEC0C6C0854
:10030000F600FF308312B30094297A117A14FF307B
:1003100083120313B3008316371E91298312171417
:100320009429831203131710831203130C11B30AB9
:10033000A1290B1DA1298B1EA1290B1183160313C3
:10034000B803831203133A088A00390E8300FE0EA5
:040350007E0E090014
:1003800083120313B10BF3297009B1000310B10CF0
:100390000310B10C0310B10C0530B1072D1FD52986
:1003A00051308A15A9268A11F3297C1EE029513083
:1003B0008A15AB268A1101308A15A9268A11F329DC
:1003C0007C1CEB2951308A15AB268A1140308A15E6
:1003D000A9268A11F32951308A15AB268A111030CB
:1003E0008A15A9268A110800013083120313B00070
:1003F0001A307002031C1B2A7A181B2A7A1D152A30
:1004000014247A1183120313B00B152A7C190D2AB8
:1004100004308A15A9268A11112A04308A15AB26C0
:100420008A110A3083120313B0008A150A16702548
:100430008A110A12F82904308A15AB268A1108009D
:100440007A1D692A831203132E082F040319382AF0
:1004500031182E2AAE032E0A0319AF038312031399
:100460002E082F04031D692A70080317A900692AA2
:100470000A308312031729020318422A8316031332
:10048000A301492A0A308312031729028316031392
:10049000A3004B3070020318522AFF30831203135B
:1004A000AE00AF01831603132308700203185C2A01
:1004B000FF308312AE00AF010A3083120317290701
:1004C0007002031C692A0319692AFF300313AE0066
:1004D000AF010800143083120313B00002308A15F4
:1004E0000E258A118A150A1670258A110A127A1C9D
:1004F000862A83120313051E832AB00B862AAD17A2
:100500000230B000862A83120313AD137A186E2AC4
:1005100083120313051E6E2A08000330831603138B
:1005200081003F30850002309F00C030831286007A
:100530004030831686006030831287008430831633
:10054000870081171417FC012E308A15AB268A11FB
:1005500024308316031398009030831298001930CA
:100560008316990083121A083130900004309700E6
:1005700091017F3092004E3083169200FA0183126F
:10058000AD017A148A1539258A1104308A15A926F5
:100590008A1101308A150E258A110A1670210A1255
:1005A000831203179F01A001A1017A1FDA2A8A157D
:1005B00069258A11831603130C158C140B17FF3051
:1005C00083120317A90001308A150E258A118A1596
:1005D0000A16A7208A110A128A150A16FD218A1105
:1005E0000A1201308A150A16DD248A110A127730A0
:1005F000F6007730F5000130F4000130F000803073
:100600008A15AB268A118B122E308A15AB268A11D9
:1006100004308A15A9268A117A1F122B20308A15D8
:10062000A9268A118A1539258A11FF3083120317EA
:10063000A9008B176A220A1693220A12F4217A184B
:10064000FB2A83120313B001F701F8011030FB00FD
:10065000FF30AE00AF01AD111E307602031CAD15A8
:1006600083120313051E0A2C81010B118B168A15A8
:1006700076268A11831203179B019C0199019A0126
:1006800076248A150A16D2208A110A128A150A16A9
:1006900066228A110A1283160313B81B522BB8085C
:1006A000031D4B2B8B1276240A1693220A129E24CA
:1006B0007A1C772BFA1C772B0F307705031D632BE1
:1006C00083120313B00AC8308312031330020318D5
:1006D0000A2CAD172E308A15AB268A118312031708
:1006E0002608F1002708F2002808F300DD2BFA1C89
:1006F000812B1B3070020318812B83120313B20B62
:10070000DD2B7A188F2BFA1C892B1B307002031CEF
:100710008F2BFA18BB2B233070020318BB2B02302F
:1007200083160313B8071030FB00FF308312AE00AE
:10073000AF018A1539258A1183120317AA01AB016B
:10074000AC01AD01AE01AF017A1CA92B0313051A50
:100750000A2C2E308A15AB268A1151308A15AB2609
:100760008A1108308A15A9268A118A150A16702559
:100770008A110A12012CFA18D12B7108831203175F
:10078000A6007208A7007308A800FF30B000B101EE
:100790008A150A1670258A110A1201308312031372
:1007A000B100FA1483120313AD13B0016430B20028
:1007B00008308A15A9268A11C02183160313D8018F
:1007C000D901DA01DB012022FB080319E92BFB0325
:1007D000EF2B8A1515208A118A15E7238A118312B7
:1007E0000317100883160313A000831203171108C0
:1007F00083160313A1008312031712088316031331
:10080000A2000D2614248A1512268A118A1536266E
:100810008A11302B80308A15AB268A11032B0A16D9
:100820001E220A126C0808008312031381010B11A7
:100830000F308604831644088312DF0083164708AE
:100840008312E000831645088312E10083164608F0
:100850008312E200ED30831203130102031C2A2CE1
:100860008B130B1D312C0B11831203132D1D3A2CEE
:1008700030308604043083120313AD068312060859
:100880000F390319502CDF0B462C0610E10B492CB5
:100890008610E20B4C2C0611E00B3F2C86113F2CEE
:1008A0008B17ED30831203130102031C512C8B13A1
:1008B0000B1D582C83160313480A8312E00083167D
:1008C000490A8312DF008312031306083039031923
:1008D000722CDF0B6C2C0612E00B6F2C8612702C26
:1008E000712C652C8B170B1D732C080083160313BA
:1008F0009F17893083129F008A155B258A11831602
:1009000003131E0883120317990703189A0A031387
:100910001E0803179A07913003139F008A155B2561
:100920008A11831603131E08831203179B070318EB
:100930009C0A03131E0803179C0708000230831249
:100940000317990703189A0A02309B0703189C0A99
:1009500003149A1F03109A0C990C03149A1F031086
:100960009A0C990C03149C1F03109C0C9B0C0314F1
:100970009C1F03109C0C9B0CFB080319322D1A08BA
:100980009807190897070318980A1C0896071B0868
:1009900095070318960A7B0B0C2E7A1B012D18085D
:1009A00083160313A6003F08831203171707831645
:1009B0000313A5000318A60ABF1BA603250883126C
:1009C0000317970083160313260883120317980052
:1009D000160883160313A600400883120317150791
:1009E00083160313A5000318A60AC01BA603250837
:1009F0008312031795008316031326088312031727
:100A0000960008308312031797070318980A0830D6
:100A100095070318960A1708AA001808AB000430B7
:100A20000313E300031083120317AB0CAA0C031388
:100A3000E30B122D03171508AC001608AD000430A7
:100A40000313E300031083120317AD0CAC0C031364
:100A5000E30B222D031797019801950196019D0143
:100A60009E010C2E831203172B089A022A08990262
:100A7000031C9A032D089C022C089B02031C9C0358
:100A800083160313371C922D831203171C081A07B1
:100A900083160313A600831203171B081907831676
:100AA0000313A5000318A60A831203171A089C0251
:100AB00019089B02031C9C03031083160313250DC6
:100AC00083120317990083160313260D831203174D
:100AD0009A0019080313EC0003171A080313ED001A
:100AE0000330EE000F24831203136C0803179900E0
:100AF00003136D0803179A0003109B0D9C0D1B0830
:100B00000313EC0003171C080313ED000330EE0081
:100B10000F24831203136C0803179B0003136D0843
:100B200003179C0083120317190883160313A500EB
:100B3000831203171A0883160313A60003148312E3
:100B400003179A1F03109A0C990C03149A1F031091
:100B50009A0C990C19089000831603132508831228
:100B600003179900831603132608831203179A00AC
:100B700003149A1F03109A0C990C8A1564228A1187
:100B8000831203171B0883160313A5008312031790
:100B90001C0883160313A6000314831203179C1F5B
:100BA00003109C0C9B0C03149C1F03109C0C9B0CAF
:100BB0001B089100831603132508831203179B005B
:100BC000831603132608831203179C0003149C1F2B
:100BD00003109C0C9B0C8A15B8228A1183160313F0
:100BE0009F13A13083129F008A155B258A118312FF
:100BF00003131E08031792002E082F04031D052E51
:100C00001208AE00AF01AE1BAF03831203172E080C
:100C100092028A150C238A110800FB080319162E6C
:100C200083160313D801D901DA01DB018312031300
:100C3000AD1D202E77308316D8070318D90A262E2B
:100C4000760883160313D8070318D90A7508831684
:100C50000313DA070318DB0AD91B3A2E5908031DC0
:100C6000352EF1305802031C3A2EF0308316031350
:100C7000C8004B2E83160313D91B422E5808590463
:100C8000031D472E013083160313C8004B2E831615
:100C900003135808C80083160313DB1B5B2E5B0885
:100CA000031D562EF1305A02031C5B2EF0308316C2
:100CB0000313C9006C2E83160313DB1B632E5A0823
:100CC0005B04031D682E013083160313C9006C2ECC
:0A0CD000831603135A08C900080038
:101000008A110A16B4218A150A123F0808008A11AB
:101010000A16DD218A150A123F0808008A110A16ED
:1010200046228A150A126C08080083160313371922
:101030001B28B71E1D282E30AB268A110A16032046
:101040008A150A12831203171008003C8316031333
:10105000D200D301D21BD3032008D2070318D30A2E
:10106000A01BD30352088312EC008316530883128B
:10107000ED0083162A088312EE00EF01EE1BEF034A
:101080000720831203133F088316D20083124008FF
:101090008316D3008312031710080313EC00831682
:1010A00028088312EE0000208312031340088316E1
:1010B000D30783123F088316D2070318D30A0830D8
:1010C000D2070318D30A04308312C6000314831610
:1010D0000313D31F0310D30CD20C8312C60B662844
:1010E0008316B71E8A28FD1B7B28FD0803197B2861
:1010F0000830A9267F28FD1F7F280430A9268312E7
:1011000003173108031D8828F1303002031C8A2898
:101110002030A92683160313371DA1288312031735
:10112000981B98289808031998280430A926A12804
:1011300083120317981FA128180A0319A128083041
:10114000A926FB08031DC8288312031717080313D9
:10115000EC00031718080313ED0083162908831207
:10116000EE00EF01EE1BEF030720831203133F088D
:101170008316D800831240088316D9008030D80720
:101180000318D90A5908D2070318D30AD91BD30365
:10119000710883160313D202031CD303F11BD30A75
:1011A000831203171108003C83160313D400D501E2
:1011B000D41BD5032108D4070318D50AA11BD503D6
:1011C00054088312EC00831655088312ED00831631
:1011D0002F088312EE00EF01EE1BEF0307208312AE
:1011E00003133F088316D400831240088316D500EA
:1011F0008312031711080313EC0083162D088312C2
:10120000EE0000208312031340088316D5078312D3
:101210003F088316D4070318D50A0830D4070318EB
:10122000D50A04308312C600031483160313D51F96
:101230000310D50CD40C8312C60B14298316371D4A
:10124000342983120317961B2B29960803192B297F
:101250002030A926342983120317961F3429160A31
:10126000031934290230A926FB08031D5B298312C8
:10127000031715080313EC00031716080313ED00FA
:1012800083162E088312EE00EF01EE1BEF030720FA
:10129000831203133F088316DA0083124008831673
:1012A000DB008030DA070318DB0A5B08D407031879
:1012B000D50ADB1BD503720883160313D402031C63
:1012C000D503F21BD50A8312031713080313EC008E
:1012D000031714080313ED00831633088312EE007E
:1012E000EF01EE1BEF030720831203133F08831661
:1012F000D600831240088316D7008030D607031823
:10130000D70A5708D600D701D61BD7038312031775
:101310001208003C83160313DC00DD01DC1BDD0337
:101320002208DC070318DD0AA21BDD035C08831218
:10133000EC0083165D088312ED00831634088312D7
:10134000EE00EF01EE1BEF030720831203133F08AB
:101350008316DC00831240088316DD008312031716
:1013600012080313EC00831632088312EE000020EB
:101370008312031340088316DD0783123F08831688
:10138000DC070318DD0A0830DC070318DD0A043027
:101390008312C600031483160313DD1F0310DD0C34
:1013A000DC0C8312C60BCA2983165D08D7075C08BC
:1013B000D6070318D70A3508003CA3000301A31B76
:1013C000FF3057020319EC29570823060318803A07
:1013D00080390319F229F9298316031323085602C9
:1013E0000318F929831603132308D600D701D61B47
:1013F000D703030183160313B51BFF3057020319EC
:10140000092A570835060318803A80390319162A25
:101410000F2A83160313560835020318162A83165B
:1014200003133508D600D701D61BD703FB08031DCD
:10143000562A83160313BA080319562AC10803193A
:10144000562A8312031717080313EC000317180812
:101450000313ED0083163A088312EE00EF01EE1B32
:10146000EF030E20831203136C088316D800831237
:101470006D088316D9008312031715080313EC00B7
:10148000031716080313ED00831641088312EE00BC
:10149000EF01EE1BEF030E20831203136C0883167B
:1014A000DA0083126D088316DB005C2A83160313AF
:1014B000D801D901DA01DB0108008A110A161E22BF
:1014C0008A150A126C080800831203171A08980775
:1014D000190897070318980AFB08031DB72A8316F3
:1014E00003132C08003CA3002C08831203171802D6
:1014F0001808831603132C060318803A8039031941
:10150000872A2C0883120317980097019B2A8316B9
:1015100003132308831203171802180883160313F2
:1015200023060318803A8039031D9B2A230883125F
:1015300003179800970183120317981BA82A17080E
:1015400018040319A82A9703170A03199803AF2A46
:1015500083120317981FAF2A970A0319980A831258
:1015600003171D0897070318980A9D1B9803080086
:10157000831203171C0896071B0895070318960A81
:10158000FB08031D0B2B831603133108003CA3003B
:101590003108831203171602160883160313310647
:1015A0000318803A80390319DB2A310883120317A4
:1015B00096009501EF2A831603132308831203175D
:1015C000160216088316031323060318803A80397F
:1015D000031DEF2A23088312031796009501831237
:1015E0000317961BFC2A150816040319FC2A9503F9
:1015F000150A03199603032B83120317961F032B57
:10160000950A0319960A831203171E0895070318F3
:10161000960A9E1B9603080073088312031792070D
:10162000FA1F562B0A30280783160313A3007308EA
:101630002302730823060318803A8039031D262BE2
:10164000FF3083120317B000B101562B0A3083120A
:101650000317280283160313A300230873027308D9
:1016600023060318803A8039031D3C2BFF30831278
:101670000317B000B101562BFD1B472B1F307D0215
:10168000031C472B1E30831203179202562BFD1F9B
:10169000522BE2307D020318522B1E3083120317A7
:1016A0009207562B7D0883120317920283120317A9
:1016B000120893070318940A921B940383160313CA
:1016C0003608003CA30036088312031714021408DE
:1016D0008316031336060318803A80390319762BD4
:1016E000360883120317940093018A2B8316031381
:1016F0002308831203171402140883160313230606
:101700000318803A8039031D8A2B2308831203179C
:101710009400930183120317941B972B130814044E
:101720000319972B9303130A031994039E2B831217
:101730000317941F9E2B930A0319940A831203170D
:10174000941BAB2B130814040319AB2B9303130A3C
:1017500003199403B22B83120317941FB22B930A1D
:101760000319940A080083120313CB1BBE2B4B08EA
:10177000031DBD2BF1304A020318F0340301831618
:101780000313BE1BFF3083124B020319D02B4B08EF
:1017900083163E060318803A80390319D72BDB2BBA
:1017A000831603133E0883124A020318DB2B8316A9
:1017B00003133E08080083120313CB1BE22B4A08D5
:1017C0004B0403190134831203134A0808007008FC
:1017D00083120313C800C901831627088312031755
:1017E000B200B301B21BB303831603135F08831265
:1017F0000317B307831603135E0883120317B20798
:101800000318B30A33080313C90703173208031375
:10181000C8070318C90A8316550853028312ED003E
:101820008316540852028312EC00031CED030230AD
:10183000EE005D22831203136C080317B20003133A
:101840006D080317B3008316031355088312490765
:101850008316CF005408831248078316CE0003185E
:10186000CF0A831203173308031349078316CB00EB
:10187000831203173208031348078316CA0003189C
:10188000CB0A831203173308031349028316CD00D2
:10189000831203173208031348028316CC00031C7B
:1018A000CD035708D10077305607D0000318D10A6E
:1018B0000301BE1BFF30831249020319682C49083B
:1018C00083163E060318803A80390319DF2C6F2CEB
:1018D00083120313480883163E020318DF2C831675
:1018E00003134B084D0203197D2C4B084D060318BA
:1018F000803A80390319832CA72C831603134A08D6
:101900004C020318A72C030183160313BE1BFF30E0
:101910004D020319932C4D083E060318803A803976
:101920000319992CA72C831603133E084C020318A5
:10193000A72C831603134D08CB074C08CA070318BE
:10194000CB0A3E08CA02031CCB03BE1BCB0A83167C
:1019500003134D084B020319B52C4D084B06031811
:10196000803A80390319BB2CDF2C831603134C08F3
:101970004A020318DF2C030183160313BE1BFF303A
:101980004B020319CB2C4B083E060318803A8039D2
:101990000319D12CDF2C831603133E084A020318C7
:1019A000DF2C831603134B08CD074A08CC07031816
:1019B000CD0A3E08CC02031CCD03BE1BCD0A831604
:1019C00003134E088312CA0083164F088312CB00FC
:1019D000B32383160313C4004A088312CA00831674
:1019E0004B088312CB00B32383160313C5004C08A6
:1019F0008312CA0083164D088312CB00B3238316CB
:101A00000313C60050088312CA00831651088312BC
:101A1000CB00B32383160313C700080083120313FC
:101A2000E5008101E7010A308312031367020318FE
:101A3000382DE60183120313650866020318342D5E
:101A40000A30003A0319292D0B1D242D0B11FF3EDE
:101A5000212D8A1114248A15831203138C1A08006D
:101A600083120313E60A1A2D83120313E70A132DB8
:101A70000800013083160313C400C500C600C70068
:101A80007730C900C800FA10A201A101A001A70186
:101A9000DE01DF01DA01DB01D801D901831203176E
:101AA000A2019D019E019501960197019801930164
:101AB0009401A50108001E30003A0319612DFF3E74
:101AC0005C2D831203131F15831203131F19642D3A
:101AD000080002300E2583160313D801D901DA015C
:101AE000DB01DC01DD01EE0183160313EE1B7C2D0F
:101AF00010306E020318CD2DA7308A110A162B2143
:101B00008A150A12083903197C2DE8308A110A1641
:101B10002B218A150A1283160313D2008A110A1682
:101B20003A218A150A1283160313D3008A110A1662
:101B30003A218A150A1283160313D6008A110A164F
:101B40003A218A150A1283160313D7008A110A163E
:101B50003A218A150A1283160313D4008A110A1631
:101B60003A218A150A1283160313D50083128716A9
:101B700083165308D9075208D8070318D90A5508FD
:101B8000DB075408DA070318DB0A5708DD07560895
:101B9000DC070318DD0AEE0A742D083083160313E0
:101BA000D8070318D90A0830DA070318DB0A083007
:101BB000DC070318DD0A04308312E80003148316DF
:101BC0000313D91F0310D90CD80C8312E80BDE2D98
:101BD0000430E800031483160313DB1F0310DB0C2F
:101BE000DA0C8312E80BEA2D0430E80003148316A4
:101BF0000313DD1F0310DD0CDC0C8312E80BF62D44
:101C000083165808831203179F00831603135A087C
:101C100083120317A000831603135C0883120317B3
:101C2000A1000800831603139F13813083129F00C5
:101C30005B250310831203131E0CEA008316240A8B
:101C400083126A07EB000314EB1F03106B0C83165F
:101C5000A40039082402240839060318803A803980
:101C6000031D342EFA16352EFA120800FA1E462EDF
:101C7000323077020318412E8030A9260430A9267D
:101C8000752E8030AB260430AB26752E83120313DD
:101C9000AD1F5C2E323077020318572E02307802C7
:101CA0000318572E8030A9260430A926752E8030BF
:101CB000AB260430AB26752E83120313AD1E712E96
:101CC0003230770203186C2EF808031D6C2E80301A
:101CD000A9260430A926752E8030AB260430AB2609
:101CE000752E8030AB260430AB2E0800F708031D9C
:101CF000812E6430F700F808031D802E0830F800AC
:101D0000F803F70308007C0883160313EE00831220
:101D1000871683160712831287110830003A0319B9
:101D2000A42E83160313EE1F982E831207169B2EE4
:101D3000831203130712031083160313EE0D83128D
:101D400087158711FF3E8E2E831203138714871089
:0C1D50000800FC04832EFF3AFC05832EE3
:10200000DD213F0808007A1F0A29A7302B21E8307C
:102010002B2183160313D8003A2183160313D9000A
:102020003A2183160313DC003A2183160313DD00E3
:102030003A2183160313DA003A2183160313DB00D7
:102040008312871683163F08D802031CD903BF1BCF
:10205000D90A4008DA02031CDB03C01BDB0A3D0877
:10206000DC02031CDD03BD1BDD0A0430DD0283122C
:10207000031717080313EC00031718080313ED00E8
:102080000B30EE00EF010020831203133F0883168C
:10209000D600831240088316D7001030D6070318E5
:1020A000D70A05308312A000031483160313D71F29
:1020B0000310D70CD60C8312A00B54288316570894
:1020C000D9025608D802031CD903831203171A0831
:1020D00083160313D90783120317190883160313F2
:1020E000D8070318D90A831203171A088316031393
:1020F000D90783120317190883160313D807031887
:10210000D90A831203179D0183160313D91B932841
:102110005908031D8F280B305802031C9328831283
:1021200003179D0AA02883160313D91FA028590F4F
:102130009D28F63058020318A028831203179D0328
:102140008312031715080313EC0003171608031373
:10215000ED000B30EE00EF010020831203133F0867
:102160008316D600831240088316D7001030D60796
:102170000318D70A05308312A00003148316031333
:10218000D71F0310D70CD60C8312A00BBD288316C3
:102190005708DB025608DA02031CDB03831203171D
:1021A0001C0883160313DB07831203171B0883160F
:1021B0000313DA070318DB0A831203171C088316BC
:1021C0000313DB07831203171B0883160313DA07B5
:1021D0000318DB0A831203179E0183160313DB1B0C
:1021E000FC285B08031DF8280B305A02031CFC284E
:1021F000831203179E0A0E2983160313DB1F0E2971
:102200005B0F0629F6305A0203180E2983120317B2
:102210009E030E2983160313DE01DF0108008316D7
:10222000031307128312871187120830003A03192B
:102230002A29831203138711BD1F2029071623297A
:10224000831203130712031083120313BD0D8715A6
:10225000FF3E1629080083120313BD00BC000716B9
:102260000F218316031307163A21831203133C1F11
:10227000871608000830003A03194A29831203130D
:1022800087110310BD0D071A3D1483120313871520
:10229000FF3E3B29831203133D08080083120313FA
:1022A000BD000F2183120313BC01083083120313F6
:1022B0003C0203186A298711BE1F6029071663298B
:1022C000831203130712031083120313BE0D871525
:1022D000BC0A5529831203138716831607160800B4
:1022E0008312031387164A30BE0021304E218F30EF
:1022F0002B213A3A031DA429C73083120313BE00D1
:1023000020304E2183120313BE0122304E2148306B
:1023100083120313BE0030304E2183120313BE011B
:1023200034304E21FC3083120313BE0035304E2171
:10233000FF3083120313BE0036304E218312031385
:10234000BE0138304E217A1708000830831203137B
:10235000C400BF01C0016C08EE0C0318C007C00C1C
:10236000BF0CC40BAC290800083083120313C4004F
:102370006E08C300BF01C0016C08C30C0318C0077E
:10238000C00CBF0CC40BBD296E08EC1BC0026C084E
:10239000EE1BC0020800103083120313C4000310A8
:1023A000BF0DC00DEC0DED0D031CDA296E08BF0743
:1023B0000318C00AC40BCF2908001030831203137E
:1023C000C4000310BF0DC00DEC0DED0D031CEE2974
:1023D0006F08C0076E08BF070318C00AC40BE129C5
:1023E000080083120313C1011130C400FF29C10D7D
:1023F000C30D6E084102431803140318C100EC0D0D
:10240000ED0DC40BF729080083120313C101C201AB
:102410001130C400192AC10DC20D6E0841026F08A7
:10242000031C6F0F4202031C192AC2006E08C1026E
:102430000314EC0DED0DC40B0B2A080083120313DB
:10244000C1011130C4006E086D06C300ED1F352AAE
:10245000ED09EC09EC0A0319ED0AC408031D352A3D
:102460006C08BF006D08C0000800EE1F3F2AEE098F
:10247000EE0A3F2AC10D6E0841020318C100EC0D9F
:10248000ED0DC40B3A2AC31B282A0800831203133C
:10249000C101C2011130C4006F086D06C300ED1FF9
:1024A0005E2AED09EC09EC0A0319ED0AC408031DC4
:1024B0005E2A6C08BF006D08C0000800EF1F742A78
:1024C000EF09EE09EE0A0319EF0A742AC10DC20DD5
:1024D0006E0841026F08031C6F0F4202031C742A2E
:1024E000C2006E08C1020314EC0DED0DC40B662A88
:1024F000C31B512A6C08BF006D08C000080083127E
:102500000313C5010830C400EC0DC50DC30D6E08E2
:102510004502431803140318C500C40B842A450858
:10252000EC0008000800831203178D017830740254
:10253000031C9C2A20308D00A83083120313CC008A
:10254000C430831203134C020318B62A83160317F0
:102550008C130C148313831203134C088400031789
:102560000C0880008D0A0313CC0AA02A83160313DB
:102570003908A400B81BC02A023038020318C52A43
:10258000023083160313B800CF2A83160313B81B37
:10259000CF2A15303802031CCF2A1430B8000800A7
:1025A000831203135A0C123E03178F0003135A0CA5
:1025B000590CF13E03178D0003188F0A8316031779
:1025C0008C170C1400000000831203135918EC2A16
:1025D00003170C087F390800831203170C0D0E0D2A
:1025E00008000D05D5205628A019AE183517B41AC5
:1025F0003710C337F03CF2346734741047174B1769
:10260000A022E7306E103218301CAD1C2013A02B16
:102610002E10CD3068396937E73272103218B01B8E
:102620002D1C0D055434E939A0396F33F43B613961
:102630006510E337ED327310F7347434A020C229EB
:102640004F26552A45265910CE27A02B4129D220A6
:102650004E2AD9100D0580068A2A412B5010D61912
:10266000AE183517B41A3710F232613279170D05EA
:10267000C73CF2373A10333CA020442CD229B11A7F
:10268000B0060A266937E5307210F332EE396F3939
:10269000731080274E264927C5060A00EE377410AE
:1026A000613BE134EC306236E5060A00C230F237B5
:1026B0002000C2265018B81A0D0580294D22351861
:1026C000B0060A005434F237743AEC32A0216800A4
:1026D00033003100C3376D38E139731080068A2129
:1026E000EF36ED306E32731D0D054C172E17CC34BE
:1026F000733A20386139E1360D054D172E17CD3765
:10270000E434E63C20386139E1360D0553172E17C5
:102710005334EF3BA039653A75380D054E172E1727
:10272000CE32753AF2306C10F630EC3AE5390D05E0
:1027300052172E175334EF3B2039E531E534F6328A
:10274000721063346137EE32EC390D0542172E17E3
:10275000733A61397410C2376F3A2D26EF30E43284
:10276000F2060A000D05D232E734733A65392000CB
:10277000A01E20000D053E000D05D030F230ED32D8
:10278000F4327210EC34733A20336F39A039653A61
:10279000A01180068A296536E531F4326410F030E4
:1027A000F230ED32F4327210F332741D20000D0558
:1027B000CE32753AF2306C10D2376C363A0020289F
:1027C000F431681D0010D930771D80060A2A3A00BE
:103000008A11A5218A153F0808008A11DD218A1539
:103010003F0808008A111E228A156C080800102833
:1030200011281228132814281528162817280800F4
:10303000013083120313CE000F20831686178312EC
:103040000313861B2528CE0F1F280F20831203137E
:103050004E08080083160313061718208312031363
:103060000613831606130F20831286138316861306
:103070000800831603130613831206131820831601
:10308000031306170F2883120313CD00FF01083026
:103090007F020318652883120313CD1F522883165D
:1030A00006175728831203130613831606131820D6
:1030B000003A03190134831203138613831686130F
:1030C00003108312CD0DFF0A47288316031306173A
:1030D0001820003A03190134FF0183120313061B61
:1030E000FF0A8613831686137F08080083120313D2
:1030F000CF00D00183160617FF0108307F020318A6
:1031000092281820003A0319003403108312031385
:10311000D00D061B501483120313861383168613D7
:10312000FF0A7D28831203134F08031D0617031996
:103130000613831606131820003A0319003483126D
:103140000313861383168613831250080800FA139C
:103150002A2042304320003A031D39282A204230D9
:103160004320003A031D392847304320003A031D0D
:10317000392874304320003A031D39287230432027
:10318000003A031D392839202A2042304320003AD2
:10319000031D39284F304320003A031D39283920B8
:1031A000FA173928FA1FA5292A2043304320003A6C
:1031B0000319DD283920FD01A5290030762083126E
:1031C0000317B5000130762083120317B4003920AD
:1031D0008312031734080313EC0003173508031395
:1031E000ED000F30EE000A20831203136C08031762
:1031F000B40003136D080317B5003108031D04293B
:10320000F1303002031C0C29FD0183120317B003B7
:10321000300A0319B103A529831203173008F03AC5
:10322000031D1A29B108031D1A293408B0003508F6
:10323000B100FD018312031735083102B5003408CF
:103240003002B400031CB503B51F3229350F2C29F9
:103250008930340203183229F03083120317B4077F
:103260000318B50A83120317B51B43293508031D3C
:103270003D2979303402031C4329F03083120317AF
:10328000B402031CB50383120317B51B5429350878
:10329000031D4E2915303402031C542914308312A7
:1032A0000317B400B501642983120317B51F6429FD
:1032B000350F5E29EC30340203186429EC30831298
:1032C0000317B400FF30B5007D0883120317B60062
:1032D000B701B61BB70336080313EC000317370812
:1032E0000313ED000330EE00EF01052083120313FA
:1032F0003F080317B600031340080317B70035084B
:10330000B7073408B6070318B70A0310B60DB70D90
:103310000310B60DB70D36080313EC00031737087A
:103320000313ED00831642088312EE00EF01EE1B3B
:10333000EF030520831203133F080317B60003139E
:1033400040080317B7003708FD0008002A20EE30B8
:103350004320003A031DD529F6304320003A031DCF
:10336000D5292A20EF304320003A031DD52901300A
:10337000762083160313A60039202A20EE3043203E
:10338000003A031DD529F7304320003A031DD52903
:103390002A20EF304320003A031DD5290130762042
:1033A00083160313A5003920013439208312031337
:1033B0002D10003483120313D2002A20EE30432054
:1033C000003A031DFB29F4304320003A031DFB297A
:1033D0008312031352084320003A031DFB293920AE
:1033E00083120313AD10520803172406031DFA2994
:1033F0000313AD14013439200034F901831603138B
:10340000A7012A20EE304320003A031D612AD03064
:103410004320003A031D612A2A20EF304320003A5E
:10342000031D612A0130762083120317A30039207F
:10343000831203172308553A031D212A2E30A400B6
:10344000252A6E3083120317A40083120317240861
:10345000DA21003A0319612A0A30003A0319352AA1
:103460000B110B1D312AFF3E2D2AA62183160313B3
:1034700025088312A800831626088312A900F430B9
:10348000DA21003A0319612A1E30003A03194D2A45
:103490000B110B1D492AFF3E452AA6218316031353
:1034A00025088312A600831626088312A700031797
:1034B0002408DA21003A0319612A831203132D1418
:1034C0000800831203132D132D103928F90A8312D3
:1034D00003132D1CBB2B02307902031C712AAD187B
:1034E000792A08307902031CBB2B83120313AD1811
:1034F000BB2BF901A621013A031DBB2B8312031339
:10350000AD1CA22AF430DA21831203132E082F04F3
:103510000319932A831625088312A8008316260808
:103520008312A900BB2B83120313290883162602DA
:103530008312AB002808831625028312AA00031CFD
:10354000AB03BB2B831203172408DA218312031366
:103550002E082F040319B92A831625088312A60002
:10356000831626088312A7008316A70183122D1342
:10357000BB2B831203132D1BBF2AAC012D17831203
:10358000031327088316A602831226088316A502B2
:10359000031CA60383122A08EC002B08ED008316F7
:1035A0002B088312EE00EF01EE1BEF0305208312C0
:1035B00003133F08A2004008A3001030A20703181D
:1035C000A30A2208EC002308ED002030EE000A20B8
:1035D000831203136C08A2006D08A300230883164E
:1035E000A607831222088316A5070318A60A250832
:1035F0008312A200831626088312A3002C088316C8
:10360000A500A601A51BA60383122C08EC00073019
:10361000EE000020831203133F08AC002208AC0721
:103620000430AC072C08EC00ED01EC1BED03083076
:10363000EE000A20831203136C08AC0083162609DF
:103640008312A300AC1FA30A8316250883122C0241
:10365000A200031CA303AC1B342B09302C02031C57
:10366000342B0830AC003E2B83120313AC1F3E2BCF
:10367000FD302C0203183E2BFD30AC0083120313E7
:103680002C08EC00831630088312EE000020831211
:1036900003133F088316A5002708250227082506DF
:1036A0000318803A8039031D572BA703622B83161A
:1036B000031325082702270825060318803A8039B6
:1036C0000319A70A831603132708250227082506CE
:1036D0000318803A8039031D6F2BA7037A2B8316BA
:1036E000031325082702270825060318803A803986
:1036F0000319A70A83120313A31B8A2B2308031D94
:10370000852B09302202031C8A2B083083120313F5
:10371000A200982B83120313A31F982B230F942B23
:10372000F83022020318982BF83083120313A200FA
:10373000831203132208EC00831643088312EE0061
:103740000020831203133F088316A5002508A7074E
:10375000A71BB12B10302702031CB12B0F30A70081
:10376000BB2B83160313A71FBB2BFB3027020318A9
:10377000BB2BFB30A70008008A11A5218A153F0842
:103780000800EE008A11F1218A156C080800EE008D
:103790008A117F228A156C080800831203135708C8
:1037A000D9005808DA008A11D0228A15003A031984
:1037B000E92B831203135708D9005808DA008A113D
:1037C000D0228A15F12383120313D70A0319D80ACA
:1037D000CD2B0800923083120313D7000130D8009C
:1037E000CD2B831203130C1EF12B831203139900AC
:1037F000080083120313D4005408EC00ED01643078
:10380000C123831203136C08303EF1238312031388
:103810005408EC006430C72383120313D400540807
:10382000EC00ED010A30C123831203136C08303E13
:10383000F123831203135408EC000A30C7238312C8
:103840000313D40030305407F12B303E831203139E
:10385000D4003A305402031C2F2C0730D4078312B3
:1038600003135408F12B83120313D600560E0F399D
:1038700025240F30831203135605252C83120313BE
:10388000D400D41F4A2C2D30F12383120313D40902
:10389000D40A4C2C2B30F123831203135408F92B38
:1038A000831203138C1E622C9818582C181D5E2C42
:1038B00083120313181218161A08622C83120313AA
:1038C0001A08F12B003483120313D40150248312FD
:1038D0000313D50030305502031C662C3A305502D4
:1038E0000318662C30305502D4005408EC000A301E
:1038F000EE00BC23831203133F08D400502483122C
:103900000313D50030305502031C7E2C3A3055028B
:1039100003187E2C30305502D40754080800831257
:103920000313D4017A12502483120313D5003030CC
:103930005502031C9F2C3A305502031CA52C831200
:10394000031355082D3A031D932C831203135508B6
:103950002D3A031DB82C7A16502483120313D50078
:1039600030305502031CAC2C3A3055020318AC2CF5
:103970003030831203135502D4005408EC000A308F
:10398000EE00BC23831203133F08D400502483129B
:103990000313D50030305502031CC62C3A305502B3
:1039A0000318C62C30305502D4077A1ED92CD409FE
:1039B000D40A8312031354080800003A0319E72CB1
:1039C00083120313D701D801CD230130F4007530E1
:1039D00083120313D700D801CD237A1FF62CB13000
:1039E00083120313D700D801CD23FC2CBA308312E5
:1039F0000313D700D801CD23F23083120313D7006D
:103A0000D801CD23FA1F0B2DB13083120313D70039
:103A1000D801CD23112DBA3083120313D700D8015A
:103A2000CD23CA3083120313D700D801CD238312CC
:103A300003132D1C2D2D03172308553A031D262D86
:103A4000D0300313D700D801CD23332DD9308312C2
:103A50000313D700D801CD23332DBA3083120313BB
:103A6000D700D801CD238A1193228A15E230831220
:103A70000313D700D801CD2383160313B71C462D9B
:103A8000EE308312D700D801CD234C2DF0308312B5
:103A90000313D700D801CD23B13083120313D7000D
:103AA0000130D800CD2378307402031C5A2D3230F7
:103AB000F123EA2B3130F123EA2B831603178C1301
:103AC0000C158B1355308D00AA308D008C148B177C
:103AD000831603178C18682D831603170C11080022
:103AE000502483120313DC005C1BDC1283120313CB
:103AF0005C080319992E4C3A0319942D013A0319C5
:103B0000D12D1E3A0319152E1D3A0319182E1C3AF1
:103B100003193F2E103A03197A2E163A0319822EF2
:103B20006B3A0319922E992E963083120313D70005
:103B30000130D800CD2378307402031CA22D32301E
:103B4000F123A42D3130F1238A1193228A150130FB
:103B500083120313DC00A830DB00C430831203138C
:103B60005B020318CF2D8230D7000130D800CD235F
:103B7000831203135C08F9238E3083120313D700DA
:103B80000130D800CD238313831203135B08840014
:103B900000083E2483120313DC0ADB0AAD2DEA235E
:103BA000992E02300A12A9260A16823083120313B4
:103BB000D7000130D800CD23632483120313DC0027
:103BC000DC038E30D7000130D800CD238F24831240
:103BD0000313D408540803178C0078307402031CB4
:103BE000F42D20300313DC07831203135C08031742
:103BF0008D005D25831203135C080F3A031D0F2E01
:103C00001230D405203003178D0783160C14ED30C5
:103C100083128C050313540803178C045D250230AE
:103C20000A12AB260A16EA23992E0030DD24992EBB
:103C3000CC3083120313D7000130D800CD23831278
:103C400003171F083E24DC3083120313D700013012
:103C5000D800CD238312031720083E24E3308312BB
:103C60000313D7000130D800CD230430831603138B
:103C7000DD028312031721083E24EA23992EE9303E
:103C800083120313D7000130D800CD237008F92325
:103C90002C30F1235230F1233A30F12371083E24C5
:103CA0002C30F1234E30F1233A30F12372083E24B8
:103CB0002C30F1235930F1233A30F12373083E249C
:103CC0002C30F1233530F1233A30F1237408F923F5
:103CD0002C30F1233630F1233A30F1237508F923E3
:103CE0002C30F1233730F1233A30F1237608F923D1
:103CF000EA23992E1F308A00002F8A110A1200270A
:103D00008A150A160A3083120317900014309100A6
:103D10001E300313A4002830A5008A1192228A15B0
:103D2000EA23992EFB3083120313D700D801CD2349
:043D3000EA2B080072
:103E000083168B13A4308700860119309900243063
:103E100098008301903098000030AE27F0018301B4
:103E2000A03084008C1E122F1A089818482F1819D9
:103E3000482F80003A3C03192C2F000E0F39FD3E0D
:103E400003192C2FFF3E03192C2F0A3000020319EF
:103E50002E2FFD3E031D482F840A122FA030840010
:103E600000083A3C031D482F840AFB01A627FA00EC
:103E70000310FA0C203C031C482FA627F300A627AA
:103E8000F200A627003E03194D2FFF3E03197E2F97
:103E900018120930AE2718160F2F83010317730C61
:103EA0008F00720C8D003E30730203187B2FA62703
:103EB0008C00A6278E008F08031D742F8D08031D0C
:103EC000742FF4000C08F50070141F308C00303093
:103ED00090278E018A308C00912700308C002F3083
:103EE000902702308D02752F9127FA0B572FA627A6
:103EF0007B080D3003191230AE270F2FAD27701C31
:103F00008D2F03178D018F0175088C007408902781
:103F1000FF308C003F30902791271530AE278F2F30
:103F20008E0083168C170C1555308D00AA308D002D
:103F30008C140000000083128D0A03198F0A0800F8
:103F400030300002001BF93E840A0800A027F1006F
:103F5000F10EA0277104FB07080012308301F10065
:103F60007108C027003E031DB92F0D30BC270A3051
:103F7000BC2FBC27F10AB02F0C1EBC2F99000800E3
:103F8000820742346F346F347434203431342E3429
:103F900031340034453452345234003443345334D1
:103FA00055344D3400344F344B340034533455348D
:0E3FB000433443344534533453342134003405
:044000000034003454
:02400E00723FFF
:00000001FF
