:020000008D2A47
:08000800FE00030E8312031336
:10001000B9000A08BA008A018C1C10288C10B301A0
:10002000831203130C1D732991018C10FA11B3086C
:10003000031D222815088316E00083121608831674
:10004000E1006E29831203133308023A031D3D2891
:1000500015088316E400831216088316E50063086A
:100060006502E30062086402E200031CE303031478
:10007000E31F0310E30CE20C6E2983120313330811
:10008000043A031D582815088316E8008312160841
:100090008316E90067086902E70066086802E6005F
:1000A000031CE7030314E71F0310E70CE60C6E299B
:1000B000831203133308063A031D752815088316A7
:1000C000EC00831216088316ED006B086D02EB003E
:1000D0006A086C02EA00031CEB030314EB1F031015
:1000E000EB0CEA0C6A08F5006E2983120313330B3C
:1000F0008E2815088316E200831216088316E30083
:1001000061086302E10060086202E000031CE10391
:100110000314E11F0310E10CE00C6E29831203139A
:100120003308033A031DA92815088316E600831235
:1001300016088316E70065086702E5006408660292
:10014000E400031CE5030314E51F0310E50CE40CB5
:100150006E29831203133308053A031D4A29150833
:100160008316EA00831216088316EB0069086B02F7
:10017000E90068086A02E800031CE9030314E91FA8
:100180000310E90CE80C610B6829630B6829650B07
:100190006829670B6829690B6829B71CDB28640884
:1001A000F000773060028312B40077308316620269
:1001B0008312B500E828831603136008F000773037
:1001C00062028312B4007730831664028312B50092
:1001D00077308316031366028312B6008316B71DA9
:1001E000FA2803148312B41F0310B40C0314B51FB0
:1001F0000310B50C831203133608F3000310710DBE
:10020000B700B801F11BB803B80D7108B7070318A0
:10021000B80AF11BB8033408B7070318B80AB41BAF
:10022000B8030230B7070318B80A0314B81F031045
:10023000B80CB70C0314B81F0310B80CB70C370870
:10024000F1000310720DB700B801F21BB803B80D2E
:100250007208B7070318B80AF21BB8033508B707C6
:100260000318B80AB51BB8030230B7070318B80A59
:100270000314B81F0310B80CB70C0314B81F0310F5
:10028000B80CB70C3708F20083166808F4007A102F
:100290007A156E29831203133308073A031D682960
:1002A00083166D08831216028316ED006C08831204
:1002B00015028316EC00031CED030314ED1F03105D
:1002C000ED0CEC0C6C08F600FF308312B3006E29C5
:1002D0007A117A14FF3083120313B30083120313CD
:1002E0000C11B30A7B290B1D7B298B1E7B290B115B
:1002F00083160313B803831203133A088A00390ED6
:080300008300FE0E7E0E0900D1
:1003800083120313B10BF3297009B1000310B10CF0
:100390000310B10C0310B10C0530B1072D1FD52986
:1003A00051308A156A278A11F3297C1EE0295130C1
:1003B0008A156C278A1101308A156A278A11F32958
:1003C0007C1CEB2951308A156C278A1140308A1524
:1003D0006A278A11F32951308A156C278A11103047
:1003E0008A156A278A110800013083120313B000AE
:1003F0001A307002031C1B2A7A181B2A7A1D152A30
:1004000023247A1183120313B00B152A7C190D2AA9
:1004100004308A156A278A11112A04308A156C273C
:100420008A110A3083120313B0008A150A16A22516
:100430008A110A12F82904308A156C278A110800DB
:100440007A1D692A831203132E082F040319382AF0
:1004500031182E2AAE032E0A0319AF038312031399
:100460002E082F04031D692A70080317A900692AA2
:100470000A308312031729020318422A8316031332
:10048000A301492A0A308312031729028316031392
:10049000A3004B3070020318522AFF30831203135B
:1004A000AE00AF01831603132308700203185C2A01
:1004B000FF308312AE00AF010A3083120317290701
:1004C0007002031C692A0319692AFF300313AE0066
:1004D000AF010800143083120313B00002308A15F4
:1004E000E6258A118A150A16A2258A110A127A1C93
:1004F000862A83120313051E832AB00B862AAD17A2
:100500000230B000862A83120313AD137A186E2AC4
:1005100083120313051E6E2A08000330831603138B
:1005200081003F30850002309F00C030831286007A
:100530004030831686006030831287008430831633
:10054000870081171417FC012E308A156C278A1139
:1005500024308316031398009030831298001930CA
:100560008316990083121A083130900004309700E6
:1005700091017F3092004E3083169200FA0183126F
:10058000AD017A148A1511268A1104308A156A275A
:100590008A1101308A15E6258A110A16AD210A1240
:1005A000831203179F01A001A1017A1FDA2A8A157D
:1005B00041268A11831603130C158C140B17FF3078
:1005C00083120317A90001308A15E6258A118A15BE
:1005D0000A16A7208A110A128A150A1614228A11ED
:1005E0000A1201308A150A160F258A110A1277306D
:1005F000F6007730F5000130F4000130F000803073
:100600008A156C278A118B122E308A156C278A1155
:1006100004308A156A278A117A1F122B20308A1516
:100620006A278A118A1511268A11FF30831203174F
:10063000A9008B176A220A16D0220A12F4217A180E
:10064000FB2A83120313B001F701F8011030FB00FD
:10065000FF30AE00AF01AD111E307602031CAD15A8
:1006600083120313051E192C81010B118B168A1599
:1006700037278A11831203179B019C0199019A0164
:1006800024248A150A16D2208A110A128A150A16FB
:100690007D228A110A1283160313B81B522BB80845
:1006A000031D4B2B8B1224240A16D0220A124C2431
:1006B0007A1C772BFA1C772B0F307705031D632BE1
:1006C00083120313B00AC8308312031330020318D5
:1006D000192CAD172E308A156C278A118312031737
:1006E0002608F1002708F2002808F300DD2BFA1C89
:1006F000812B1B3070020318812B83120313B20B62
:10070000DD2B7A188F2BFA1C892B1B307002031CEF
:100710008F2BFA18BB2B233070020318BB2B02302F
:1007200083160313B8071030FB00FF308312AE00AE
:10073000AF018A1511268A1183120317AA01AB0192
:10074000AC01AD01AE01AF017A1CA92B0313051A50
:10075000192C2E308A156C278A1151308A156C2776
:100760008A1108308A156A278A118A150A16A22565
:100770008A110A12012CFA18D12B7108831203175F
:10078000A6007208A7007308A800FF30B000B101EE
:100790008A150A16A2258A110A1201308312031340
:1007A000B100FA1483120313AD13B0016430B20028
:1007B00008308A156A278A11C02183160313D801CD
:1007C000D901DA01DB012022FB080319E92BFB0325
:1007D000EF2B8A1515208A118A15E0238A118312BE
:1007E0000317100883160313A000831203171108C0
:1007F00083160313A1008312031712088316031331
:10080000A200392623248A15EA268A118A15F7269A
:100810008A11FB08031D302B0D308A150A1623247C
:100820008A110A120A308A150A1623248A110A121A
:10083000302B80308A156C278A11032B0A165B2215
:100840000A126C0808000800831603139F178930EA
:1008500083129F008A1533268A11831603131E08FC
:1008600083120317990703189A0A03131E08031724
:100870009A07913003139F008A1533268A11831635
:1008800003131E08831203179B0703189C0A031304
:100890001E0803179C07080083120317990A0319FF
:1008A0009A0A9B0A03199C0A03149A1F03109A0CB4
:1008B000990C03149C1F03109C0C9B0CFB08031940
:1008C000D42C1A089807190897070318980A1C08C7
:1008D00096071B0895070318960A7B0B382E7A1B80
:1008E000A32C180883160313A6003F0883120317CE
:1008F000170783160313A5000318A60ABF1BA60338
:100900002508831203179700831603132608831202
:1009100003179800160883160313A60040088312D5
:100920000317150783160313A5000318A60AC01B97
:10093000A6032508831203179500831603132608C0
:1009400083120317960008308312031797070318C2
:10095000980A083095070318960A1708AA0018087D
:10096000AB0004300313E300031083120317AB0C36
:10097000AA0C0313E30BB42C03171508AC001608DC
:10098000AD0004300313E300031083120317AD0C12
:10099000AC0C0313E30BC42C0317970198019501CA
:1009A00096019D019E01382E831203172B089A028F
:1009B0002A089902031C9A032D089C022C089B020A
:1009C000031C9C0383160313371C342D8312031757
:1009D0001C081A0783160313A600831203171B08AB
:1009E000190783160313A5000318A60A8312031719
:1009F0001A089C0219089B02031C9C03031083160F
:100A00000313250D83120317990083160313260D74
:100A1000831203179A0019080313EC0003171A082E
:100A20000313ED000330EE001E24831203136C0841
:100A30000317990003136D0803179A0003109B0D09
:100A40009C0D1B080313EC0003171C080313ED0097
:100A50000330EE001E24831203136C0803179B005F
:100A600003136D0803179C00831203171A088A15D5
:100A70000A1665248A110A128312031719088A15A7
:100A80000A1665248A110A123B308A150A16232495
:100A90008A110A12831203171C088A150A16652484
:100AA0008A110A12831203171B088A150A16652475
:100AB0008A110A123B308A150A1623248A110A1257
:100AC00083120317190883160313A5008312031753
:100AD0001A0883160313A6000314831203179A1F20
:100AE00003109A0C990C03149A1F03109A0C990C7A
:100AF0001908900083160313250883120317990021
:100B0000831603132608831203179A0003149A1FEF
:100B100003109A0C990C8A155D228A11831203170F
:100B20001B0883160313A500831203171C088316E2
:100B30000313A6000314831203179C1F03109C0CBD
:100B40009B0C03149C1F03109C0C9B0C1B08910016
:100B5000831603132508831203179B0083160313C0
:100B60002608831203179C0003149C1F03109C0C7F
:100B70009B0C8A15B1228A11831603139F13A1308F
:100B800083129F008A1533268A11831203131E08CD
:100B9000031792002E082F04031DD32D1208AE0058
:100BA000AF01AE1BAF03831203172E0892028A1502
:100BB00005238A118312031712080313DD00DE01D7
:100BC000DD1BDE035E088A150A1665248A110A12E7
:100BD000831203135D088A150A1665248A110A1206
:100BE0003B308A150A1623248A110A12831203172E
:100BF00018088A150A1665248A110A128312031727
:100C000017088A150A1665248A110A123B308A15BC
:100C10000A1623248A110A128312031716088A154A
:100C20000A1665248A110A128312031715088A15F9
:100C30000A1665248A110A123B308A150A162324E3
:100C40008A110A128312031714088A150A166524DA
:100C50008A110A128312031713088A150A166524CB
:100C60008A110A123B308A150A1623248A110A12A5
:100C70000800FB080319422E83160313D801D9017B
:100C8000DA01DB0183120313AD1D4C2E773083167E
:100C9000D8070318D90A522E760883160313D807EB
:100CA0000318D90A750883160313DA070318DB0A39
:100CB000D91B662E5908031D612EF1305802031C02
:100CC000662EF03083160313C800772E83160313A5
:100CD000D91B6E2E58085904031D732E013083163C
:100CE0000313C800772E831603135808C800831611
:100CF0000313DB1B872E5B08031D822EF1305A0283
:100D0000031C872EF03083160313C900982E831618
:100D10000313DB1B8F2E5A085B04031D942E013036
:100D200083160313C900982E831603135A08C900AB
:020D30000800B9
:101000008A110A16F1218A150A123F0808008A116E
:101010000A161A228A150A123F0808008A110A16AF
:1010200083228A150A126C080800831603133719E5
:101030001B28B71E1D282E306C278A110A16032084
:101040008A150A12831203171008003C8316031333
:10105000D200D301D21BD3032008D2070318D30A2E
:10106000A01BD30352088312EC008316530883128B
:10107000ED0083162A088312EE00EF01EE1BEF034A
:101080000720831203133F088316D20083124008FF
:101090008316D3008312031710080313EC00831682
:1010A00028088312EE0000208312031340088316E1
:1010B000D30783123F088316D2070318D30A0830D8
:1010C000D2070318D30A04308312C6000314831610
:1010D0000313D31F0310D30CD20C8312C60B662844
:1010E0008316B71E8A28FD1B7B28FD0803197B2861
:1010F00008306A277F28FD1F7F2804306A27831263
:1011000003173108031D8828F1303002031C8A2898
:1011100020306A2783160313371DA1288312031773
:10112000981B982898080319982804306A27A12842
:1011300083120317981FA128180A0319A128083041
:101140006A27FB08031DC828831203171708031317
:10115000EC00031718080313ED0083162908831207
:10116000EE00EF01EE1BEF030720831203133F088D
:101170008316D800831240088316D9008030D80720
:101180000318D90A5908D2070318D30AD91BD30365
:10119000710883160313D202031CD303F11BD30A75
:1011A000831203171108003C83160313D400D501E2
:1011B000D41BD5032108D4070318D50AA11BD503D6
:1011C00054088312EC00831655088312ED00831631
:1011D0002F088312EE00EF01EE1BEF0307208312AE
:1011E00003133F088316D400831240088316D500EA
:1011F0008312031711080313EC0083162D088312C2
:10120000EE0000208312031340088316D5078312D3
:101210003F088316D4070318D50A0830D4070318EB
:10122000D50A04308312C600031483160313D51F96
:101230000310D50CD40C8312C60B14298316371D4A
:10124000342983120317961B2B29960803192B297F
:1012500020306A27342983120317961F3429160A6F
:101260000319342902306A27FB08031D5B29831206
:10127000031715080313EC00031716080313ED00FA
:1012800083162E088312EE00EF01EE1BEF030720FA
:10129000831203133F088316DA0083124008831673
:1012A000DB008030DA070318DB0A5B08D407031879
:1012B000D50ADB1BD503720883160313D402031C63
:1012C000D503F21BD50A8312031713080313EC008E
:1012D000031714080313ED00831633088312EE007E
:1012E000EF01EE1BEF030720831203133F08831661
:1012F000D600831240088316D7008030D607031823
:10130000D70A5708D600D701D61BD7038312031775
:101310001208003C83160313DC00DD01DC1BDD0337
:101320002208DC070318DD0AA21BDD035C08831218
:10133000EC0083165D088312ED00831634088312D7
:10134000EE00EF01EE1BEF030720831203133F08AB
:101350008316DC00831240088316DD008312031716
:1013600012080313EC00831632088312EE000020EB
:101370008312031340088316DD0783123F08831688
:10138000DC070318DD0A0830DC070318DD0A043027
:101390008312C600031483160313DD1F0310DD0C34
:1013A000DC0C8312C60BCA2983165D08D7075C08BC
:1013B000D6070318D70A3508003CA3000301A31B76
:1013C000FF3057020319EC29570823060318803A07
:1013D00080390319F229F9298316031323085602C9
:1013E0000318F929831603132308D600D701D61B47
:1013F000D703030183160313B51BFF3057020319EC
:10140000092A570835060318803A80390319162A25
:101410000F2A83160313560835020318162A83165B
:1014200003133508D600D701D61BD703FB08031DCD
:10143000562A83160313BA080319562AC10803193A
:10144000562A8312031717080313EC000317180812
:101450000313ED0083163A088312EE00EF01EE1B32
:10146000EF030E20831203136C088316D800831237
:101470006D088316D9008312031715080313EC00B7
:10148000031716080313ED00831641088312EE00BC
:10149000EF01EE1BEF030E20831203136C0883167B
:1014A000DA0083126D088316DB005C2A83160313AF
:1014B000D801D901DA01DB010800831203171A08E9
:1014C0009807190897070318980AFB08031DB02A04
:1014D000831603132C08003CA3002C088312031767
:1014E00018021808831603132C060318803A803953
:1014F0000319802A2C088312031798009701942A55
:10150000831603132308831203171802180883167F
:10151000031323060318803A8039031D942A2308F5
:10152000831203179800970183120317981BA12AAF
:10153000170818040319A12A9703170A0319980317
:10154000A82A83120317981FA82A970A0319980A32
:10155000831203171D0897070318980A9D1B980309
:101560000800831203171C0896071B089507031829
:10157000960AFB08031D042B831603133108003C55
:10158000A3003108831203171602160883160313EB
:1015900031060318803A80390319D42A310883129E
:1015A000031796009501E82A831603132308831274
:1015B0000317160216088316031323060318803A2E
:1015C0008039031DE82A230883120317960095012A
:1015D00083120317961BF52A150816040319F52A1A
:1015E0009503150A03199603FC2A83120317961F05
:1015F000FC2A950A0319960A831203171E089507F9
:101600000318960A9E1B960308007308831203179B
:101610009207FA1F4F2B0A30280783160313A300E3
:1016200073082302730823060318803A8039031DC8
:101630001F2BFF3083120317B000B1014F2B0A306C
:1016400083120317280283160313A30023087302CF
:10165000730823060318803A8039031D352BFF30A9
:1016600083120317B000B1014F2BFD1B402B1F301D
:101670007D02031C402B1E308312031792024F2B56
:10168000FD1F4B2BE2307D0203184B2B1E308312C3
:10169000031792074F2B7D088312031792028312C0
:1016A0000317120893070318940A921B94038316D6
:1016B00003133608003CA3003608831203171402F4
:1016C00014088316031336060318803A8039031969
:1016D0006F2B36088312031794009301832B831614
:1016E0000313230883120317140214088316031329
:1016F00023060318803A8039031D832B23088312A5
:1017000003179400930183120317941B902B130863
:1017100014040319902B9303130A03199403972BB2
:1017200083120317941F972B930A0319940A8312A9
:101730000317941BA42B130814040319A42B93035D
:10174000130A03199403AB2B83120317941FAB2BBB
:10175000930A0319940A080083120313CB1BB72BB7
:101760004B08031DB62BF1304A020318F034030175
:1017700083160313BE1BFF3083124B020319C92BC0
:101780004B0883163E060318803A80390319D02B84
:10179000D42B831603133E0883124A020318D42B5A
:1017A000831603133E08080083120313CB1BDB2BA5
:1017B0004A084B0403190134831203134A08080032
:1017C000700883120313C800C90183162708831207
:1017D0000317B200B301B21BB303831603135F08F0
:1017E00083120317B307831603135E0883120317CC
:1017F000B2070318B30A33080313C90703173208E3
:101800000313C8070318C90A8316371C502C550840
:10181000831249078316CB005408831248078316A6
:10182000CA000318CB0A5308CB025208CA02031C91
:10183000CB035508831249028316CD005408831246
:1018400048028316CC00031CCD035308CD07520871
:10185000CC070318CD0A5508831249028316CF001E
:101860005408831248028316CE00031CCF0353088A
:10187000CF025208CE02031CCF035508831249073A
:101880008316D1005408831248078316D00003182A
:10189000D10A5308D1075208D0070318D10A822C65
:1018A000831603135308831249028316CB00520890
:1018B000831248028316CA00031CCB035308831209
:1018C00049078316CD005208831248078316CC00BF
:1018D0000318CD0A5508831249028316CF00540815
:1018E000831248028316CE00031CCF0355088312CF
:1018F00049078316D1005408831248078316D00085
:101900000318D10A831603135708CF075608CE07CA
:101910000318CF0A5708D1075608D0070318D10A71
:101920005708CB025608CA02031CCB035708CD0246
:101930005608CC02031CCD030301BE1BFF308312EB
:1019400049020319AC2C490883163E060318803A55
:1019500080390319B72DB32C83120313480883165B
:101960003E020318B72D831603134F0851020319C3
:10197000C12C4F0851060318803A80390319C72C2F
:10198000F42C831603134E0850020318F42C0301A1
:1019900083160313BE1BFF3051020319D72C5108C5
:1019A0003E060318803A80390319DD2CF42C831687
:1019B00003133E0850020318F42C831603133E0849
:1019C0005002A3002308CE070318CF0AA31BCF039E
:1019D0002308CA070318CB0AA31BCB032308CC0791
:1019E0000318CD0AA31BCD038316031351084F021E
:1019F0000319022D51084F060318803A8039031944
:101A0000082D352D8316031350084E020318352D6B
:101A1000030183160313BE1BFF304F020319182D59
:101A20004F083E060318803A803903191E2D352DC4
:101A3000831603133E084E020318352D8316031335
:101A40003E084E02A3002308D0070318D10AA31BA7
:101A5000D1032308CA070318CB0AA31BCB0323080F
:101A6000CC070318CD0AA31BCD03831603134B0821
:101A70004D020319432D4B084D060318803A803957
:101A80000319492D762D831603134A084C020318B7
:101A9000762D030183160313BE1BFF304D0203197D
:101AA000592D4D083E060318803A803903195F2DE1
:101AB000762D831603133E084C020318762D8316E9
:101AC00003133E084C02A3002308CA070318CB0ADD
:101AD000A31BCB032308CE070318CF0AA31BCF03F6
:101AE0002308D0070318D10AA31BD10383160313BD
:101AF0004D084B020319842D4D084B060318803AFC
:101B0000803903198A2DB72D831603134C084A0216
:101B10000318B72D030183160313BE1BFF304B02BE
:101B200003199A2D4B083E060318803A8039031991
:101B3000A02DB72D831603133E084A020318B72DB4
:101B4000831603133E084A02A3002308CC07031898
:101B5000CD0AA31BCD032308CE070318CF0AA31B6E
:101B6000CF032308D0070318D10AA31BD103831680
:101B700003134E088312CA0083164F088312CB004A
:101B8000AC2383160313C4004A088312CA008316C9
:101B90004B088312CB00AC2383160313C5004C08FB
:101BA0008312CA0083164D088312CB00AC23831620
:101BB0000313C60050088312CA008316510883120B
:101BC000CB00AC2383160313C70008008312031352
:101BD000E5008101E7010A3083120313670203184D
:101BE000102EE601831203136508660203180C2EFB
:101BF0000A30003A0319012E0B1DFC2D0B11FF3E7C
:101C0000F92D8A1123248A15831203138C1A0800D4
:101C100083120313E60AF22D83120313E70AEB2D56
:101C20000800013083160313C400C500C600C700B6
:101C30007730C900C800FA10A201A101A001A701D4
:101C4000DE01DF01DA01DB01D801D90183120317BC
:101C5000A2019D019E0195019601970198019301B2
:101C60009401A50108001E30003A0319392EFF3EE9
:101C7000342E831203131F15831203131F193C2ED6
:101C800008000230E62583160313D801D901DA01D2
:101C9000DB01DC01DD01EE0183160313EE1B542E84
:101CA00010306E020318A52EA7308A110A1668217B
:101CB0008A150A1208390319542EE8308A110A16B7
:101CC00068218A150A1283160313D2008A110A1694
:101CD00077218A150A1283160313D3008A110A1674
:101CE00077218A150A1283160313D6008A110A1661
:101CF00077218A150A1283160313D7008A110A1650
:101D000077218A150A1283160313D4008A110A1642
:101D100077218A150A1283160313D50083128716BA
:101D200083165308D9075208D8070318D90A55084B
:101D3000DB075408DA070318DB0A5708DD075608E3
:101D4000DC070318DD0AEE0A4C2E08308316031355
:101D5000D8070318D90A0830DA070318DB0A083055
:101D6000DC070318DD0A04308312E800031483162D
:101D70000313D91F0310D90CD80C8312E80BB62E0D
:101D80000430E800031483160313DB1F0310DB0C7D
:101D9000DA0C8312E80BC22E0430E8000314831619
:101DA0000313DD1F0310DD0CDC0C8312E80BCE2EB9
:101DB00083165808831203179F00831603135A08CB
:101DC00083120317A000831603135C088312031702
:101DD000A1000800831603139F13813083129F0014
:101DE00033260310831203131E0CEA000800FA1EA8
:101DF000072F323077020318022F80306A27043011
:101E00006A27362F80306C2704306C27362F8312D8
:101E10000313AD1F1D2F323077020318182F023025
:101E200078020318182F80306A2704306A27362F6B
:101E300080306C2704306C27362F83120313AD1EBD
:101E4000322F3230770203182D2FF808031D2D2F63
:101E500080306A2704306A27362F80306C270430A0
:101E60006C27362F80306C2704306C2F0800F70861
:101E7000031D422F6430F700F808031D412F08307E
:101E8000F800F803F70308007C0883160313EE003C
:101E90008312871683160712831287110830003ABF
:101EA0000319652F83160313EE1F592F831207168C
:101EB0005C2F831203130712031083160313EE0D16
:101EC000831287158711FF3E4F2F83120313871448
:0E1ED00087100800FC04442FFF3AFC05442F45
:102000001A223F0808007A1F3B29A7306821E830D0
:10201000682183160313D800772183160313D90090
:10202000772183160313DC00772183160313DD0069
:10203000772183160313DA00772183160313DB005D
:102040008312871683163F08D802031CD903BF1BCF
:10205000D90A4008DA02031CDB03C01BDB0A3D0877
:10206000DC02031CDD03BD1BDD0A0430DD02FB08BE
:10207000031D682859088A1565248A1183160313DD
:1020800058088A1565248A113B308A1523248A1141
:10209000831603135B088A1565248A1183160313BC
:1020A0005A088A1565248A113B308A1523248A111F
:1020B000831603135D088A1565248A11831603139A
:1020C0005C088A1565248A113B308A1523248A11FD
:1020D0008312031717080313EC00031718080313E0
:1020E000ED000B30EE00EF010020831203133F08D8
:1020F0008316D600831240088316D7001030D60707
:102100000318D70A05308312A000031483160313A3
:10211000D71F0310D70CD60C8312A00B852883166B
:102120005708D9025608D802031CD9038312031793
:102130001A0883160313D907831203171908831685
:102140000313D8070318D90A831203171A08831632
:102150000313D90783120317190883160313D8072B
:102160000318D90A831203179D0183160313D91B81
:10217000C4285908031DC0280B305802031CC4286A
:10218000831203179D0AD12883160313D91FD12860
:10219000590FCE28F63058020318D128831203179E
:1021A0009D038312031715080313EC000317160889
:1021B0000313ED000B30EE00EF0100208312031338
:1021C0003F088316D600831240088316D7001030CC
:1021D000D6070318D70A05308312A000031483160C
:1021E0000313D71F0310D70CD60C8312A00BEE28B5
:1021F00083165708DB025608DA02031CDB0383123E
:1022000003171C0883160313DB07831203171B082D
:1022100083160313DA070318DB0A831203171C085B
:1022200083160313DB07831203171B08831603139C
:10223000DA070318DB0A831203179E0183160313C0
:10224000DB1B2D295B08031D29290B305A02031CB7
:102250002D29831203179E0A4B2983160313DB1FB4
:102260004B295B0F3729F6305A0203184B2983128A
:1022700003179E034B2983160313DE01DF013B3056
:102280008A1523248A113B308A1523248A113B3076
:102290008A1523248A110800831603130712831258
:1022A000871187120830003A031967298312031334
:1022B0008711BD1F5D2907166029831203130712BA
:1022C000031083120313BD0D8715FF3E5329080029
:1022D00083120313BD00BC0007164C2183160313A1
:1022E00007167721831203133C1F87160800083056
:1022F000003A031987298312031387110310BD0DB8
:10230000071A3D14831203138715FF3E78298312A1
:1023100003133D08080083120313BD004C218312F0
:102320000313BC010830831203133C020318A729CE
:102330008711BE1F9D290716A029831203130712B8
:10234000031083120313BE0D8715BC0A9229831252
:1023500003138716831607160800831203138716C4
:102360004A30BE0021308B218F3068213A3A031D5C
:10237000E129C73083120313BE0020308B21831262
:102380000313BE0122308B21483083120313BE0099
:1023900030308B2183120313BE0134308B21FC308B
:1023A00083120313BE0035308B21FF3083120313D9
:1023B000BE0036308B2183120313BE0138308B21CF
:1023C0007A170800083083120313C400BF01C0014C
:1023D0006C08EE0C0318C007C00CBF0CC40BE92935
:1023E0000800083083120313C4006E08C300BF0145
:1023F000C0016C08C30C0318C007C00CBF0CC40B91
:10240000FA296E08EC1BC0026C08EE1BC002080023
:10241000103083120313C4000310BF0DC00DEC0D68
:10242000ED0D031C172A6E08BF070318C00AC40B62
:102430000C2A0800103083120313C4000310BF0DD0
:10244000C00DEC0DED0D031C2B2A6F08C0076E08A4
:10245000BF070318C00AC40B1E2A08008312031307
:10246000C1011130C4003C2AC10DC30D6E084102E8
:10247000431803140318C100EC0DED0DC40B342AEE
:10248000080083120313C101C2011130C400562A8F
:10249000C10DC20D6E0841026F08031C6F0F42028E
:1024A000031C562AC2006E08C1020314EC0DED0D88
:1024B000C40B482A080083120313C1011130C40061
:1024C0006E086D06C300ED1F722AED09EC09EC0AD7
:1024D0000319ED0AC408031D722A6C08BF006D08B9
:1024E000C0000800EE1F7C2AEE09EE0A7C2AC10D0E
:1024F0006E0841020318C100EC0DED0DC40B772AE4
:10250000C31B652A080083120313C101C2011130E5
:10251000C4006F086D06C300ED1F9B2AED09EC098E
:10252000EC0A0319ED0AC408031D9B2A6C08BF00BE
:102530006D08C0000800EF1FB12AEF09EE09EE0A8E
:102540000319EF0AB12AC10DC20D6E0841026F08CE
:10255000031C6F0F4202031CB12AC2006E08C102A5
:102560000314EC0DED0DC40BA32AC31B8E2A6C08BB
:10257000BF006D08C000080083120313C5010830B6
:10258000C400EC0DC50DC30D6E08450243180314BD
:102590000318C500C40BC12A4508EC000800080058
:1025A000831203178D0178307402031CD92A20305E
:1025B0008D00A83083120313CC00C43083120313A0
:1025C0004C020318F32A831603178C130C1483137D
:1025D000831203134C08840003170C0880008D0A33
:1025E0000313CC0ADD2A831603133908A400B81B91
:1025F000FD2A023038020318022B0230831603131F
:10260000B8000C2B83160313B81B0C2B15303802A3
:10261000031C0C2B1430B8000800831203135A0C4F
:10262000133E03178F0003135A0C590C2E3E031749
:102630008D0003188F0A831603178C170C140000E3
:102640000000831203135918292B03170C087F3934
:102650000800831203170C0D0E0D08000D05D52080
:102660005628A019AE183517B41A3710C337F03CE6
:10267000F2346734741047174B17A022E7306E10FE
:102680003218301CAD1C2013A02B2E10CD30683911
:102690006937E73272103218B01B2D1C0D05543407
:1026A000E939A0396F33F43B61396510E337ED3216
:1026B0007310F7347434A020C2294F26552A4526BA
:1026C0005910CE27A02B4129D2204E2AD9100D0512
:1026D00080068A2A412B5010D619AE183517B41A25
:1026E0003710F232613279170D05C73CF2373A10D4
:1026F000333CA020442CD2293318B0060A2669376F
:10270000E5307210F332EE396F39731080274E26A0
:102710004927C5060A00EE377410613BE134EC30FE
:102720006236E5060A00C230F2372000C226501891
:10273000B81A0D0580294D223518B0060A00543408
:10274000F237743AEC32A021680033003100C3370D
:102750006D38E139731080068A21EF36ED306E3224
:10276000731D0D054C172E17CC34733A2038613980
:10277000E1360D054D172E17CD37E434E63C2038F1
:102780006139E1360D0553172E175334EF3BA0394D
:10279000653A75380D054E172E17CE32753AF23060
:1027A0006C10F630EC3AE5390D0552172E175334FC
:1027B000EF3B2039E531E534F6327210633461378E
:1027C000EE32EC390D0542172E17733A6139741049
:1027D000C2376F3A2D26EF30E432F2060A000D05BB
:1027E000D232E734733A65392000A01E20000D056F
:1027F0003E000D05D030F230ED32F4327210EC3480
:10280000733A20336F39A039653AA01180068A29BE
:102810006536E531F4326410F030F230ED32F432E6
:102820007210F332741D20000D05CE32753AF2306D
:102830006C10D2376C363A002028F431681D001035
:0A284000D930771D80060A2A3A00FD
:103000008A11E2218A153F0808008A111A228A15BE
:103010003F0808008A115B228A156C0808001028F6
:1030200011281228132814281528162817280800F4
:10303000013083120313CE000F20831686178312EC
:103040000313861B2528CE0F1F280F20831203137E
:103050004E08080083160313061718208312031363
:103060000613831606130F20831286138316861306
:103070000800831603130613831206131820831601
:10308000031306170F2883120313CD00FF01083026
:103090007F020318652883120313CD1F522883165D
:1030A00006175728831203130613831606131820D6
:1030B000003A03190134831203138613831686130F
:1030C00003108312CD0DFF0A47288316031306173A
:1030D0001820003A03190134FF0183120313061B61
:1030E000FF0A8613831686137F08080083120313D2
:1030F000CF00D00183160617FF0108307F020318A6
:1031000092281820003A0319003403108312031385
:10311000D00D061B501483120313861383168613D7
:10312000FF0A7D28831203134F08031D0617031996
:103130000613831606131820003A0319003483126D
:103140000313861383168613831250080800FA139C
:103150002A2042304320003A031D39282A204230D9
:103160004320003A031D392847304320003A031D0D
:10317000392874304320003A031D39287230432027
:10318000003A031D392839202A2042304320003AD2
:10319000031D39284F304320003A031D39283920B8
:1031A000FA173928FA1FB7292A2043304320003A5A
:1031B0000319DD283920FD01A5290030762083126E
:1031C0000317B5000130762083120317B4003920AD
:1031D0008312031734080313EC0003173508031395
:1031E000ED000F30EE000A20831203136C08031762
:1031F000B40003136D080317B5003108031D04293B
:10320000F1303002031C0C29FD0183120317B003B7
:10321000300A0319B103A529831203173008F03AC5
:10322000031D1A29B108031D1A293408B0003508F6
:10323000B100FD018312031735083102B5003408CF
:103240003002B400031CB503B51F3229350F2C29F9
:103250008930340203183229F03083120317B4077F
:103260000318B50A83120317B51B43293508031D3C
:103270003D2979303402031C4329F03083120317AF
:10328000B402031CB50383120317B51B5429350878
:10329000031D4E2915303402031C542914308312A7
:1032A0000317B400B501642983120317B51F6429FD
:1032B000350F5E29EC30340203186429EC30831298
:1032C0000317B400FF30B5007D0883120317B60062
:1032D000B701B61BB70336080313EC000317370812
:1032E0000313ED000330EE00EF01052083120313FA
:1032F0003F080317B600031340080317B70035084B
:10330000B7073408B6070318B70A0310B60DB70D90
:103310000310B60DB70D36080313EC00031737087A
:103320000313ED00831642088312EE00EF01EE1B3B
:10333000EF030520831203133F080317B60003139E
:1033400040080317B7003708FD00FB08031DBC2920
:10335000831203173408B6003508B7003708652410
:1033600083120317360865243B302324BC29FB084D
:10337000031DBC293B30232C08002A20EE304320BB
:10338000003A031DEC29F6304320003A031DEC29D6
:103390002A20EF304320003A031DEC29013076202B
:1033A00083160313A60039202A20EE304320003A6A
:1033B000031DEC29F7304320003A031DEC292A2095
:1033C000EF304320003A031DEC29013076208316AC
:1033D0000313A500392001343920831203132D1063
:1033E000003483120313D2002A20EE304320003A27
:1033F000031D122AF4304320003A031D122A8312BF
:10340000031352084320003A031D122A3920831265
:103410000313AD10520803172406031D112A0313CA
:10342000AD14013439200034F90183160313A701C8
:103430002A20EE304320003A031D782AD030432062
:10344000003A031D782A2A20EF304320003A031D5A
:10345000782A0130762083120317A30039208312C3
:1034600003172308553A031D382A2E30A4003C2A9E
:103470006E3083120317A400831203172408F1216E
:10348000003A0319782A0A30003A03194C2A0B1122
:103490000B1D482AFF3E442ABD218316031325082D
:1034A0008312A800831626088312A900F430F121A4
:1034B000003A0319782A1E30003A0319642A0B11C6
:1034C0000B1D602AFF3E5C2ABD21831603132508CD
:1034D0008312A600831626088312A7000317240868
:1034E000F121003A0319782A831203132D140800DE
:1034F000831203132D132D103928F90A8312031395
:103500002D1CD22B02307902031C882AAD18902A78
:1035100008307902031CD22B83120313AD18D22B6F
:10352000F901BD21013A031DD22B83120313AD1CF7
:10353000B92AF430F121831203132E082F04031942
:10354000AA2A831625088312A80083162608831248
:10355000A900D22B83120313290883162602831293
:10356000AB002808831625028312AA00031CAB03B4
:10357000D22B831203172408F121831203132E0880
:103580002F040319D02A831625088312A600831658
:1035900026088312A7008316A70183122D13D22BAE
:1035A000831203132D1BD62AAC012D17831203138C
:1035B00027088316A602831226088316A502031C79
:1035C000A60383122A08EC002B08ED0083162B08B3
:1035D0008312EE00EF01EE1BEF03052083120313AD
:1035E0003F08A2004008A3001030A2070318A30A56
:1035F0002208EC002308ED002030EE000A208312A0
:1036000003136C08A2006D08A30023088316A60705
:10361000831222088316A5070318A60A2508831219
:10362000A200831626088312A3002C088316A50087
:10363000A601A51BA60383122C08EC000730EE00A0
:103640000020831203133F08AC002208AC070430AB
:10365000AC072C08EC00ED01EC1BED030830EE008C
:103660000A20831203136C08AC0083162609831208
:10367000A300AC1FA30A8316250883122C02A20004
:10368000031CA303AC1B4B2B09302C02031C4B2B3C
:103690000830AC00552B83120313AC1F552BFD30A3
:1036A0002C020318552BFD30AC00831203132C0899
:1036B000EC00831630088312EE00002083120313FF
:1036C0003F088316A50027082502270825060318AA
:1036D000803A8039031D6E2BA703792B83160313C1
:1036E00025082702270825060318803A8039031980
:1036F000A70A83160313270825022708250603189F
:10370000803A8039031D862BA703912B8316031360
:1037100025082702270825060318803A803903194F
:10372000A70A83120313A31BA12B2308031D9C2BA1
:1037300009302202031CA12B083083120313A200BC
:10374000AF2B83120313A31FAF2B230FAB2BF83028
:1037500022020318AF2BF83083120313A200831246
:1037600003132208EC00831643088312EE000020A6
:10377000831203133F088316A5002508A707A71B7C
:10378000C82B10302702031CC82B0F30A700D22BE8
:1037900083160313A71FD22BFB3027020318D22B4B
:1037A000FB30A700FB08031DED2B831203132D1C18
:1037B000E92B8316270865243B3023248312031347
:1037C0002C086524831203132C0865243B30232422
:1037D000ED2B3B3023243B30232C08008A11E221BF
:1037E0008A153F080800EE008A112E228A156C08FF
:1037F0000800EE008A11BC228A156C0808008312AA
:1038000003135708D9005808DA008A110D238A15C6
:10381000003A03191B2C831203135708D9005808C8
:10382000DA008A110D238A15232483120313D70A81
:103830000319D80AFF2B0800923083120313D70014
:103840000130D800FF2B831203130C1E232C83128C
:1038500003139900080083120313D4005408EC00EA
:10386000ED016430F323831203136C08303E2324EC
:10387000831203135408EC006430F92383120313FA
:10388000D4005408EC00ED010A30F3238312031333
:103890006C08303E2324831203135408EC000A30D2
:1038A000F92383120313D40030305407232C303E05
:1038B00083120313D4003A305402031C612C0730E6
:1038C000D407831203135408232C83120313D60046
:1038D000560E0F3957240F30831203135605572CF9
:1038E00083120313D400D41F7C2C2D302324831285
:1038F0000313D409D40A7E2C2B3023248312031300
:1039000054082B2C831203138C1E942C98188A2C89
:10391000181D902C83120313181218161A08942CD1
:10392000831203131A08232C003483120313D401C7
:10393000822483120313D50030305502031C982CC7
:103940003A3055020318982C30305502D4005408F0
:10395000EC000A30EE00EE23831203133F08D4007C
:10396000822483120313D50030305502031CB02C7F
:103970003A3055020318B02C30305502D4075408A1
:10398000080083120313D4017A12822483120313D2
:10399000D50030305502031CD12C3A305502031C9F
:1039A000D72C8312031355082D3A031DC52C8312FF
:1039B000031355082D3A031DEA2C7A16822483122C
:1039C0000313D50030305502031CDE2C3A3055026B
:1039D0000318DE2C3030831203135502D400540830
:1039E000EC000A30EE00EE23831203133F08D400EC
:1039F000822483120313D50030305502031CF82CA7
:103A00003A3055020318F82C30305502D4077A1E8C
:103A10000B2DD409D40A8312031354080800003A6A
:103A20000319192D83120313D701D801FF23013085
:103A3000F400753083120313D700D801FF237A1FD7
:103A4000282DB13083120313D700D801FF232E2D68
:103A5000BA3083120313D700D801FF23F230831248
:103A60000313D700D801FF23FA1F3D2DB130831275
:103A70000313D700D801FF23432DBA308312031359
:103A8000D700D801FF23CA3083120313D700D8010F
:103A9000FF23831203132D1C5F2D03172308553AB0
:103AA000031D582DD0300313D700D801FF23652DF7
:103AB000D93083120313D700D801FF23652DBA3004
:103AC00083120313D700D801FF238A11D0228A154D
:103AD000E23083120313D700D801FF2383160313A8
:103AE000B71C782DEE308312D700D801FF237E2D2E
:103AF000F03083120313D700D801FF23B1308312B3
:103B00000313D7000130D800FF2378307402031C60
:103B10008C2D323023241C2C313023241C2C831672
:103B200003178C130C158B1355308D00AA308D00A4
:103B30008C148B17831603178C189A2D8316031772
:103B40000C110800822483120313DC005C1BDC12BE
:103B5000831203135C080319CB2E4C3A0319C62DAC
:103B6000013A0319032E1E3A0319472E1D3A031971
:103B70004A2E1C3A0319712E103A0319AC2E163A2C
:103B80000319B42E6B3A0319C42ECB2E9630831230
:103B90000313D7000130D800FF2378307402031CD0
:103BA000D42D32302324D62D313023248A11D02233
:103BB0008A15013083120313DC00A830DB00C43007
:103BC000831203135B020318012E8230D7000130E9
:103BD000D800FF23831203135C082B248E3083123A
:103BE0000313D7000130D800FF238313831203137C
:103BF0005B0884000008702483120313DC0ADB0ACC
:103C0000DF2D1C24CB2E02300A126A270A168230BE
:103C100083120313D7000130D800FF2395248312A9
:103C20000313DC00DC038E30D7000130D800FF2303
:103C3000C12483120313D408540803178C0078306E
:103C40007402031C262E20300313DC078312031397
:103C50005C0803178D008F25831203135C080F3A4D
:103C6000031D412E1230D405203003178D07831613
:103C70000C14ED3083128C050313540803178C04C5
:103C80008F2502300A126C270A161C24CB2E003016
:103C90000F25CB2ECC3083120313D7000130D80070
:103CA000FF23831203171F087024DC3083120313D1
:103CB000D7000130D800FF23831203172008702497
:103CC000E33083120313D7000130D800FF23043000
:103CD00083160313DD0283120317210870241C24AA
:103CE000CB2EE93083120313D7000130D800FF2315
:103CF00070082B242C302324523023243A302324E0
:103D0000710870242C3023244E3023243A3023248D
:103D1000720870242C302324593023243A30232471
:103D2000730870242C302324353023243A30232484
:103D300074082B242C302324363023243A302324B7
:103D400075082B242C302324373023243A302324A5
:103D500076082B241C24CB2E1F308A00002F8A11BA
:103D60000A1200278A150A160A30831203179000D8
:103D7000143091001E300313A4002830A5008A11CE
:103D8000CF228A151C24CB2EFB3083120313D700BD
:083D9000D801FF231C2C0800E0
:103E000083168B13A4308700860119309900243063
:103E100098008301903098000030AE27F0018301B4
:103E2000A03084008C1E122F1A089818482F1819D9
:103E3000482F80003A3C03192C2F000E0F39FD3E0D
:103E400003192C2FFF3E03192C2F0A3000020319EF
:103E50002E2FFD3E031D482F840A122FA030840010
:103E600000083A3C031D482F840AFB01A627FA00EC
:103E70000310FA0C203C031C482FA627F300A627AA
:103E8000F200A627003E03194D2FFF3E03197E2F97
:103E900018120930AE2718160F2F83010317730C61
:103EA0008F00720C8D003E30730203187B2FA62703
:103EB0008C00A6278E008F08031D742F8D08031D0C
:103EC000742FF4000C08F50070141F308C00303093
:103ED00090278E018A308C00912700308C002F3083
:103EE000902702308D02752F9127FA0B572FA627A6
:103EF0007B080D3003191230AE270F2FAD27701C31
:103F00008D2F03178D018F0175088C007408902781
:103F1000FF308C003F30902791271530AE278F2F30
:103F20008E0083168C170C1555308D00AA308D002D
:103F30008C140000000083128D0A03198F0A0800F8
:103F400030300002001BF93E840A0800A027F1006F
:103F5000F10EA0277104FB07080012308301F10065
:103F60007108C027003E031DB92F0D30BC270A3051
:103F7000BC2FBC27F10AB02F0C1EBC2F99000800E3
:103F8000820742346F346F347434203431342E3429
:103F900031340034453452345234003443345334D1
:103FA00055344D3400344F344B340034533455348D
:0E3FB000433443344534533453342134003405
:044000000034003454
:02400E00723FFF
:00000001FF
